{
  "_format": "hh-sol-artifact-1",
  "contractName": "SoulboundNFT",
  "sourceName": "contracts/SoulboundNFT.sol",
  "abi": [
    {
      "inputs": [],
      "stateMutability": "nonpayable",
      "type": "constructor"
    },
    {
      "inputs": [],
      "name": "ERC721EnumerableForbiddenBatchMint",
      "type": "error"
    },
    {
      "inputs": [
        {
          "internalType": "address",
          "name": "sender",
          "type": "address"
        },
        {
          "internalType": "uint256",
          "name": "tokenId",
          "type": "uint256"
        },
        {
          "internalType": "address",
          "name": "owner",
          "type": "address"
        }
      ],
      "name": "ERC721IncorrectOwner",
      "type": "error"
    },
    {
      "inputs": [
        {
          "internalType": "address",
          "name": "operator",
          "type": "address"
        },
        {
          "internalType": "uint256",
          "name": "tokenId",
          "type": "uint256"
        }
      ],
      "name": "ERC721InsufficientApproval",
      "type": "error"
    },
    {
      "inputs": [
        {
          "internalType": "address",
          "name": "approver",
          "type": "address"
        }
      ],
      "name": "ERC721InvalidApprover",
      "type": "error"
    },
    {
      "inputs": [
        {
          "internalType": "address",
          "name": "operator",
          "type": "address"
        }
      ],
      "name": "ERC721InvalidOperator",
      "type": "error"
    },
    {
      "inputs": [
        {
          "internalType": "address",
          "name": "owner",
          "type": "address"
        }
      ],
      "name": "ERC721InvalidOwner",
      "type": "error"
    },
    {
      "inputs": [
        {
          "internalType": "address",
          "name": "receiver",
          "type": "address"
        }
      ],
      "name": "ERC721InvalidReceiver",
      "type": "error"
    },
    {
      "inputs": [
        {
          "internalType": "address",
          "name": "sender",
          "type": "address"
        }
      ],
      "name": "ERC721InvalidSender",
      "type": "error"
    },
    {
      "inputs": [
        {
          "internalType": "uint256",
          "name": "tokenId",
          "type": "uint256"
        }
      ],
      "name": "ERC721NonexistentToken",
      "type": "error"
    },
    {
      "inputs": [
        {
          "internalType": "address",
          "name": "owner",
          "type": "address"
        },
        {
          "internalType": "uint256",
          "name": "index",
          "type": "uint256"
        }
      ],
      "name": "ERC721OutOfBoundsIndex",
      "type": "error"
    },
    {
      "inputs": [
        {
          "internalType": "address",
          "name": "owner",
          "type": "address"
        }
      ],
      "name": "OwnableInvalidOwner",
      "type": "error"
    },
    {
      "inputs": [
        {
          "internalType": "address",
          "name": "account",
          "type": "address"
        }
      ],
      "name": "OwnableUnauthorizedAccount",
      "type": "error"
    },
    {
      "anonymous": false,
      "inputs": [
        {
          "indexed": true,
          "internalType": "address",
          "name": "owner",
          "type": "address"
        },
        {
          "indexed": true,
          "internalType": "address",
          "name": "approved",
          "type": "address"
        },
        {
          "indexed": true,
          "internalType": "uint256",
          "name": "tokenId",
          "type": "uint256"
        }
      ],
      "name": "Approval",
      "type": "event"
    },
    {
      "anonymous": false,
      "inputs": [
        {
          "indexed": true,
          "internalType": "address",
          "name": "owner",
          "type": "address"
        },
        {
          "indexed": true,
          "internalType": "address",
          "name": "operator",
          "type": "address"
        },
        {
          "indexed": false,
          "internalType": "bool",
          "name": "approved",
          "type": "bool"
        }
      ],
      "name": "ApprovalForAll",
      "type": "event"
    },
    {
      "anonymous": false,
      "inputs": [
        {
          "indexed": true,
          "internalType": "address",
          "name": "previousOwner",
          "type": "address"
        },
        {
          "indexed": true,
          "internalType": "address",
          "name": "newOwner",
          "type": "address"
        }
      ],
      "name": "OwnershipTransferred",
      "type": "event"
    },
    {
      "anonymous": false,
      "inputs": [
        {
          "indexed": true,
          "internalType": "address",
          "name": "from",
          "type": "address"
        },
        {
          "indexed": true,
          "internalType": "address",
          "name": "to",
          "type": "address"
        },
        {
          "indexed": true,
          "internalType": "uint256",
          "name": "tokenId",
          "type": "uint256"
        }
      ],
      "name": "Transfer",
      "type": "event"
    },
    {
      "inputs": [
        {
          "internalType": "address",
          "name": "to",
          "type": "address"
        },
        {
          "internalType": "uint256",
          "name": "tokenId",
          "type": "uint256"
        }
      ],
      "name": "approve",
      "outputs": [],
      "stateMutability": "nonpayable",
      "type": "function"
    },
    {
      "inputs": [
        {
          "internalType": "address",
          "name": "owner",
          "type": "address"
        }
      ],
      "name": "balanceOf",
      "outputs": [
        {
          "internalType": "uint256",
          "name": "",
          "type": "uint256"
        }
      ],
      "stateMutability": "view",
      "type": "function"
    },
    {
      "inputs": [
        {
          "internalType": "uint256",
          "name": "tokenId",
          "type": "uint256"
        }
      ],
      "name": "exists",
      "outputs": [
        {
          "internalType": "bool",
          "name": "",
          "type": "bool"
        }
      ],
      "stateMutability": "view",
      "type": "function"
    },
    {
      "inputs": [
        {
          "internalType": "uint256",
          "name": "tokenId",
          "type": "uint256"
        }
      ],
      "name": "getApproved",
      "outputs": [
        {
          "internalType": "address",
          "name": "",
          "type": "address"
        }
      ],
      "stateMutability": "view",
      "type": "function"
    },
    {
      "inputs": [],
      "name": "getOwner",
      "outputs": [
        {
          "internalType": "address",
          "name": "",
          "type": "address"
        }
      ],
      "stateMutability": "view",
      "type": "function"
    },
    {
      "inputs": [
        {
          "internalType": "uint256",
          "name": "tokenId",
          "type": "uint256"
        }
      ],
      "name": "getTokenMetadata",
      "outputs": [
        {
          "components": [
            {
              "internalType": "string",
              "name": "name",
              "type": "string"
            },
            {
              "internalType": "string",
              "name": "surname",
              "type": "string"
            },
            {
              "internalType": "string",
              "name": "workplace",
              "type": "string"
            },
            {
              "internalType": "string",
              "name": "imageUrl",
              "type": "string"
            }
          ],
          "internalType": "struct SoulboundNFT.NFTMetadata",
          "name": "",
          "type": "tuple"
        }
      ],
      "stateMutability": "view",
      "type": "function"
    },
    {
      "inputs": [
        {
          "internalType": "address",
          "name": "owner",
          "type": "address"
        },
        {
          "internalType": "address",
          "name": "operator",
          "type": "address"
        }
      ],
      "name": "isApprovedForAll",
      "outputs": [
        {
          "internalType": "bool",
          "name": "",
          "type": "bool"
        }
      ],
      "stateMutability": "view",
      "type": "function"
    },
    {
      "inputs": [
        {
          "internalType": "address",
          "name": "to",
          "type": "address"
        },
        {
          "internalType": "string",
          "name": "name",
          "type": "string"
        },
        {
          "internalType": "string",
          "name": "surname",
          "type": "string"
        },
        {
          "internalType": "string",
          "name": "workplace",
          "type": "string"
        },
        {
          "internalType": "string",
          "name": "imageUrl",
          "type": "string"
        }
      ],
      "name": "mint",
      "outputs": [],
      "stateMutability": "nonpayable",
      "type": "function"
    },
    {
      "inputs": [],
      "name": "name",
      "outputs": [
        {
          "internalType": "string",
          "name": "",
          "type": "string"
        }
      ],
      "stateMutability": "view",
      "type": "function"
    },
    {
      "inputs": [],
      "name": "owner",
      "outputs": [
        {
          "internalType": "address",
          "name": "",
          "type": "address"
        }
      ],
      "stateMutability": "view",
      "type": "function"
    },
    {
      "inputs": [
        {
          "internalType": "uint256",
          "name": "tokenId",
          "type": "uint256"
        }
      ],
      "name": "ownerOf",
      "outputs": [
        {
          "internalType": "address",
          "name": "",
          "type": "address"
        }
      ],
      "stateMutability": "view",
      "type": "function"
    },
    {
      "inputs": [],
      "name": "renounceOwnership",
      "outputs": [],
      "stateMutability": "nonpayable",
      "type": "function"
    },
    {
      "inputs": [
        {
          "internalType": "uint256",
          "name": "tokenId",
          "type": "uint256"
        }
      ],
      "name": "revoke",
      "outputs": [],
      "stateMutability": "nonpayable",
      "type": "function"
    },
    {
      "inputs": [
        {
          "internalType": "address",
          "name": "from",
          "type": "address"
        },
        {
          "internalType": "address",
          "name": "to",
          "type": "address"
        },
        {
          "internalType": "uint256",
          "name": "tokenId",
          "type": "uint256"
        }
      ],
      "name": "safeTransferFrom",
      "outputs": [],
      "stateMutability": "nonpayable",
      "type": "function"
    },
    {
      "inputs": [
        {
          "internalType": "address",
          "name": "from",
          "type": "address"
        },
        {
          "internalType": "address",
          "name": "to",
          "type": "address"
        },
        {
          "internalType": "uint256",
          "name": "tokenId",
          "type": "uint256"
        },
        {
          "internalType": "bytes",
          "name": "data",
          "type": "bytes"
        }
      ],
      "name": "safeTransferFrom",
      "outputs": [],
      "stateMutability": "nonpayable",
      "type": "function"
    },
    {
      "inputs": [
        {
          "internalType": "address",
          "name": "operator",
          "type": "address"
        },
        {
          "internalType": "bool",
          "name": "approved",
          "type": "bool"
        }
      ],
      "name": "setApprovalForAll",
      "outputs": [],
      "stateMutability": "nonpayable",
      "type": "function"
    },
    {
      "inputs": [
        {
          "internalType": "bytes4",
          "name": "interfaceId",
          "type": "bytes4"
        }
      ],
      "name": "supportsInterface",
      "outputs": [
        {
          "internalType": "bool",
          "name": "",
          "type": "bool"
        }
      ],
      "stateMutability": "view",
      "type": "function"
    },
    {
      "inputs": [],
      "name": "symbol",
      "outputs": [
        {
          "internalType": "string",
          "name": "",
          "type": "string"
        }
      ],
      "stateMutability": "view",
      "type": "function"
    },
    {
      "inputs": [
        {
          "internalType": "uint256",
          "name": "index",
          "type": "uint256"
        }
      ],
      "name": "tokenByIndex",
      "outputs": [
        {
          "internalType": "uint256",
          "name": "",
          "type": "uint256"
        }
      ],
      "stateMutability": "view",
      "type": "function"
    },
    {
      "inputs": [
        {
          "internalType": "address",
          "name": "owner",
          "type": "address"
        },
        {
          "internalType": "uint256",
          "name": "index",
          "type": "uint256"
        }
      ],
      "name": "tokenOfOwnerByIndex",
      "outputs": [
        {
          "internalType": "uint256",
          "name": "",
          "type": "uint256"
        }
      ],
      "stateMutability": "view",
      "type": "function"
    },
    {
      "inputs": [
        {
          "internalType": "uint256",
          "name": "tokenId",
          "type": "uint256"
        }
      ],
      "name": "tokenURI",
      "outputs": [
        {
          "internalType": "string",
          "name": "",
          "type": "string"
        }
      ],
      "stateMutability": "view",
      "type": "function"
    },
    {
      "inputs": [],
      "name": "totalSupply",
      "outputs": [
        {
          "internalType": "uint256",
          "name": "",
          "type": "uint256"
        }
      ],
      "stateMutability": "view",
      "type": "function"
    },
    {
      "inputs": [
        {
          "internalType": "address",
          "name": "from",
          "type": "address"
        },
        {
          "internalType": "address",
          "name": "to",
          "type": "address"
        },
        {
          "internalType": "uint256",
          "name": "tokenId",
          "type": "uint256"
        }
      ],
      "name": "transferFrom",
      "outputs": [],
      "stateMutability": "nonpayable",
      "type": "function"
    },
    {
      "inputs": [
        {
          "internalType": "address",
          "name": "newOwner",
          "type": "address"
        }
      ],
      "name": "transferOwnership",
      "outputs": [],
      "stateMutability": "nonpayable",
      "type": "function"
    }
  ],
  "bytecode": "0x608060405234801561001057600080fd5b50336040518060400160405280600c81526020017f536f756c626f756e644e465400000000000000000000000000000000000000008152506040518060400160405280600581526020017f53424e4654000000000000000000000000000000000000000000000000000000815250816000908161008d919061043d565b50806001908161009d919061043d565b505050600073ffffffffffffffffffffffffffffffffffffffff168173ffffffffffffffffffffffffffffffffffffffff16036101125760006040517f1e4fbdf70000000000000000000000000000000000000000000000000000000081526004016101099190610550565b60405180910390fd5b6101218161012760201b60201c565b5061056b565b6000600a60009054906101000a900473ffffffffffffffffffffffffffffffffffffffff16905081600a60006101000a81548173ffffffffffffffffffffffffffffffffffffffff021916908373ffffffffffffffffffffffffffffffffffffffff1602179055508173ffffffffffffffffffffffffffffffffffffffff168173ffffffffffffffffffffffffffffffffffffffff167f8be0079c531659141344cd1fd0a4f28419497f9722a3daafe3b4186f6b6457e060405160405180910390a35050565b600081519050919050565b7f4e487b7100000000000000000000000000000000000000000000000000000000600052604160045260246000fd5b7f4e487b7100000000000000000000000000000000000000000000000000000000600052602260045260246000fd5b6000600282049050600182168061026e57607f821691505b60208210810361028157610280610227565b5b50919050565b60008190508160005260206000209050919050565b60006020601f8301049050919050565b600082821b905092915050565b6000600883026102e97fffffffffffffffffffffffffffffffffffffffffffffffffffffffffffffffff826102ac565b6102f386836102ac565b95508019841693508086168417925050509392505050565b6000819050919050565b6000819050919050565b600061033a6103356103308461030b565b610315565b61030b565b9050919050565b6000819050919050565b6103548361031f565b61036861036082610341565b8484546102b9565b825550505050565b600090565b61037d610370565b61038881848461034b565b505050565b5b818110156103ac576103a1600082610375565b60018101905061038e565b5050565b601f8211156103f1576103c281610287565b6103cb8461029c565b810160208510156103da578190505b6103ee6103e68561029c565b83018261038d565b50505b505050565b600082821c905092915050565b6000610414600019846008026103f6565b1980831691505092915050565b600061042d8383610403565b9150826002028217905092915050565b610446826101ed565b67ffffffffffffffff81111561045f5761045e6101f8565b5b6104698254610256565b6104748282856103b0565b600060209050601f8311600181146104a75760008415610495578287015190505b61049f8582610421565b865550610507565b601f1984166104b586610287565b60005b828110156104dd578489015182556001820191506020850194506020810190506104b8565b868310156104fa57848901516104f6601f891682610403565b8355505b6001600288020188555050505b505050505050565b600073ffffffffffffffffffffffffffffffffffffffff82169050919050565b600061053a8261050f565b9050919050565b61054a8161052f565b82525050565b60006020820190506105656000830184610541565b92915050565b6135378061057a6000396000f3fe608060405234801561001057600080fd5b50600436106101585760003560e01c80636352211e116100c3578063a22cb4651161007c578063a22cb465146103ed578063a40d1b1014610409578063b88d4fde14610425578063c87b56dd14610441578063e985e9c514610471578063f2fde38b146104a157610158565b80636352211e1461032957806370a0823114610359578063715018a614610389578063893d20e8146103935780638da5cb5b146103b157806395d89b41146103cf57610158565b806323b872dd1161011557806323b872dd146102315780632f745c591461024d57806342842e0e1461027d5780634f558e79146102995780634f6ccce7146102c957806360316801146102f957610158565b806301ffc9a71461015d57806306fdde031461018d578063081812fc146101ab578063095ea7b3146101db57806318160ddd146101f757806320c5429b14610215575b600080fd5b610177600480360381019061017291906125b4565b6104bd565b60405161018491906125fc565b60405180910390f35b610195610537565b6040516101a291906126a7565b60405180910390f35b6101c560048036038101906101c091906126ff565b6105c9565b6040516101d2919061276d565b60405180910390f35b6101f560048036038101906101f091906127b4565b6105e5565b005b6101ff6105fb565b60405161020c9190612803565b60405180910390f35b61022f600480360381019061022a91906126ff565b610608565b005b61024b6004803603810190610246919061281e565b610720565b005b610267600480360381019061026291906127b4565b610822565b6040516102749190612803565b60405180910390f35b6102976004803603810190610292919061281e565b6108cb565b005b6102b360048036038101906102ae91906126ff565b6108eb565b6040516102c091906125fc565b60405180910390f35b6102e360048036038101906102de91906126ff565b61092c565b6040516102f09190612803565b60405180910390f35b610313600480360381019061030e91906126ff565b6109a2565b6040516103209190612933565b60405180910390f35b610343600480360381019061033e91906126ff565b610c5f565b604051610350919061276d565b60405180910390f35b610373600480360381019061036e9190612955565b610c71565b6040516103809190612803565b60405180910390f35b610391610d2b565b005b61039b610d3f565b6040516103a8919061276d565b60405180910390f35b6103b9610d4e565b6040516103c6919061276d565b60405180910390f35b6103d7610d78565b6040516103e491906126a7565b60405180910390f35b610407600480360381019061040291906129ae565b610e0a565b005b610423600480360381019061041e9190612b23565b610e20565b005b61043f600480360381019061043a9190612caf565b610ee4565b005b61045b600480360381019061045691906126ff565b610f01565b60405161046891906126a7565b60405180910390f35b61048b60048036038101906104869190612d32565b610f6a565b60405161049891906125fc565b60405180910390f35b6104bb60048036038101906104b69190612955565b610ffe565b005b60007f780e9d63000000000000000000000000000000000000000000000000000000007bffffffffffffffffffffffffffffffffffffffffffffffffffffffff1916827bffffffffffffffffffffffffffffffffffffffffffffffffffffffff19161480610530575061052f82611081565b5b9050919050565b60606000805461054690612da1565b80601f016020809104026020016040519081016040528092919081815260200182805461057290612da1565b80156105bf5780601f10610594576101008083540402835291602001916105bf565b820191906000526020600020905b8154815290600101906020018083116105a257829003601f168201915b5050505050905090565b60006105d482611163565b506105de826111eb565b9050919050565b6105f782826105f2611228565b611230565b5050565b6000600880549050905090565b610610611242565b600073ffffffffffffffffffffffffffffffffffffffff1661063182610c5f565b73ffffffffffffffffffffffffffffffffffffffff1603610687576040517f08c379a000000000000000000000000000000000000000000000000000000000815260040161067e90612e44565b60405180910390fd5b600c600082815260200190815260200160002060009054906101000a900460ff16156106e8576040517f08c379a00000000000000000000000000000000000000000000000000000000081526004016106df90612eb0565b60405180910390fd5b6001600c600083815260200190815260200160002060006101000a81548160ff02191690831515021790555061071d816112c9565b50565b600073ffffffffffffffffffffffffffffffffffffffff168273ffffffffffffffffffffffffffffffffffffffff16036107925760006040517f64a0ae92000000000000000000000000000000000000000000000000000000008152600401610789919061276d565b60405180910390fd5b60006107a683836107a1611228565b61134f565b90508373ffffffffffffffffffffffffffffffffffffffff168173ffffffffffffffffffffffffffffffffffffffff161461081c578382826040517f64283d7b00000000000000000000000000000000000000000000000000000000815260040161081393929190612ed0565b60405180910390fd5b50505050565b600061082d83610c71565b82106108725782826040517fa57d13dc000000000000000000000000000000000000000000000000000000008152600401610869929190612f07565b60405180910390fd5b600660008473ffffffffffffffffffffffffffffffffffffffff1673ffffffffffffffffffffffffffffffffffffffff168152602001908152602001600020600083815260200190815260200160002054905092915050565b6108e683838360405180602001604052806000815250610ee4565b505050565b60008073ffffffffffffffffffffffffffffffffffffffff1661090d83610c5f565b73ffffffffffffffffffffffffffffffffffffffff1614159050919050565b60006109366105fb565b821061097c576000826040517fa57d13dc000000000000000000000000000000000000000000000000000000008152600401610973929190612f07565b60405180910390fd5b600882815481106109905761098f612f30565b5b90600052602060002001549050919050565b6109aa612520565b6109b3826108eb565b6109f2576040517f08c379a00000000000000000000000000000000000000000000000000000000081526004016109e990612fab565b60405180910390fd5b600d6000838152602001908152602001600020604051806080016040529081600082018054610a2090612da1565b80601f0160208091040260200160405190810160405280929190818152602001828054610a4c90612da1565b8015610a995780601f10610a6e57610100808354040283529160200191610a99565b820191906000526020600020905b815481529060010190602001808311610a7c57829003601f168201915b50505050508152602001600182018054610ab290612da1565b80601f0160208091040260200160405190810160405280929190818152602001828054610ade90612da1565b8015610b2b5780601f10610b0057610100808354040283529160200191610b2b565b820191906000526020600020905b815481529060010190602001808311610b0e57829003601f168201915b50505050508152602001600282018054610b4490612da1565b80601f0160208091040260200160405190810160405280929190818152602001828054610b7090612da1565b8015610bbd5780601f10610b9257610100808354040283529160200191610bbd565b820191906000526020600020905b815481529060010190602001808311610ba057829003601f168201915b50505050508152602001600382018054610bd690612da1565b80601f0160208091040260200160405190810160405280929190818152602001828054610c0290612da1565b8015610c4f5780601f10610c2457610100808354040283529160200191610c4f565b820191906000526020600020905b815481529060010190602001808311610c3257829003601f168201915b5050505050815250509050919050565b6000610c6a82611163565b9050919050565b60008073ffffffffffffffffffffffffffffffffffffffff168273ffffffffffffffffffffffffffffffffffffffff1603610ce45760006040517f89c62b64000000000000000000000000000000000000000000000000000000008152600401610cdb919061276d565b60405180910390fd5b600360008373ffffffffffffffffffffffffffffffffffffffff1673ffffffffffffffffffffffffffffffffffffffff168152602001908152602001600020549050919050565b610d33611242565b610d3d600061146c565b565b6000610d49610d4e565b905090565b6000600a60009054906101000a900473ffffffffffffffffffffffffffffffffffffffff16905090565b606060018054610d8790612da1565b80601f0160208091040260200160405190810160405280929190818152602001828054610db390612da1565b8015610e005780601f10610dd557610100808354040283529160200191610e00565b820191906000526020600020905b815481529060010190602001808311610de357829003601f168201915b5050505050905090565b610e1c610e15611228565b8383611532565b5050565b610e28611242565b6000600b6000815480929190610e3d90612ffa565b919050559050610e4d86826116a1565b604051806080016040528086815260200185815260200184815260200183815250600d60008381526020019081526020016000206000820151816000019081610e9691906131ee565b506020820151816001019081610eac91906131ee565b506040820151816002019081610ec291906131ee565b506060820151816003019081610ed891906131ee565b50905050505050505050565b610eef848484610720565b610efb8484848461179a565b50505050565b6060610f0c82611163565b506000610f17611951565b90506000815111610f375760405180602001604052806000815250610f62565b80610f4184611968565b604051602001610f529291906132fc565b6040516020818303038152906040525b915050919050565b6000600560008473ffffffffffffffffffffffffffffffffffffffff1673ffffffffffffffffffffffffffffffffffffffff16815260200190815260200160002060008373ffffffffffffffffffffffffffffffffffffffff1673ffffffffffffffffffffffffffffffffffffffff16815260200190815260200160002060009054906101000a900460ff16905092915050565b611006611242565b600073ffffffffffffffffffffffffffffffffffffffff168173ffffffffffffffffffffffffffffffffffffffff1603611075576040517f08c379a000000000000000000000000000000000000000000000000000000000815260040161106c9061336c565b60405180910390fd5b61107e81611a36565b50565b60007f80ac58cd000000000000000000000000000000000000000000000000000000007bffffffffffffffffffffffffffffffffffffffffffffffffffffffff1916827bffffffffffffffffffffffffffffffffffffffffffffffffffffffff1916148061114c57507f5b5e139f000000000000000000000000000000000000000000000000000000007bffffffffffffffffffffffffffffffffffffffffffffffffffffffff1916827bffffffffffffffffffffffffffffffffffffffffffffffffffffffff1916145b8061115c575061115b82611abc565b5b9050919050565b60008061116f83611b26565b9050600073ffffffffffffffffffffffffffffffffffffffff168173ffffffffffffffffffffffffffffffffffffffff16036111e257826040517f7e2732890000000000000000000000000000000000000000000000000000000081526004016111d99190612803565b60405180910390fd5b80915050919050565b60006004600083815260200190815260200160002060009054906101000a900473ffffffffffffffffffffffffffffffffffffffff169050919050565b600033905090565b61123d8383836001611b63565b505050565b61124a611228565b73ffffffffffffffffffffffffffffffffffffffff16611268610d4e565b73ffffffffffffffffffffffffffffffffffffffff16146112c75761128b611228565b6040517f118cdaa70000000000000000000000000000000000000000000000000000000081526004016112be919061276d565b60405180910390fd5b565b60006112d8600083600061134f565b9050600073ffffffffffffffffffffffffffffffffffffffff168173ffffffffffffffffffffffffffffffffffffffff160361134b57816040517f7e2732890000000000000000000000000000000000000000000000000000000081526004016113429190612803565b60405180910390fd5b5050565b60008061135d858585611d28565b9050600073ffffffffffffffffffffffffffffffffffffffff168173ffffffffffffffffffffffffffffffffffffffff16036113a15761139c84611f42565b6113e0565b8473ffffffffffffffffffffffffffffffffffffffff168173ffffffffffffffffffffffffffffffffffffffff16146113df576113de8185611f8b565b5b5b600073ffffffffffffffffffffffffffffffffffffffff168573ffffffffffffffffffffffffffffffffffffffff16036114225761141d846120ec565b611461565b8473ffffffffffffffffffffffffffffffffffffffff168173ffffffffffffffffffffffffffffffffffffffff16146114605761145f85856121bd565b5b5b809150509392505050565b6000600a60009054906101000a900473ffffffffffffffffffffffffffffffffffffffff16905081600a60006101000a81548173ffffffffffffffffffffffffffffffffffffffff021916908373ffffffffffffffffffffffffffffffffffffffff1602179055508173ffffffffffffffffffffffffffffffffffffffff168173ffffffffffffffffffffffffffffffffffffffff167f8be0079c531659141344cd1fd0a4f28419497f9722a3daafe3b4186f6b6457e060405160405180910390a35050565b600073ffffffffffffffffffffffffffffffffffffffff168273ffffffffffffffffffffffffffffffffffffffff16036115a357816040517f5b08ba1800000000000000000000000000000000000000000000000000000000815260040161159a919061276d565b60405180910390fd5b80600560008573ffffffffffffffffffffffffffffffffffffffff1673ffffffffffffffffffffffffffffffffffffffff16815260200190815260200160002060008473ffffffffffffffffffffffffffffffffffffffff1673ffffffffffffffffffffffffffffffffffffffff16815260200190815260200160002060006101000a81548160ff0219169083151502179055508173ffffffffffffffffffffffffffffffffffffffff168373ffffffffffffffffffffffffffffffffffffffff167f17307eab39ab6107e8899845ad3d59bd9653f200f220920489ca2b5937696c318360405161169491906125fc565b60405180910390a3505050565b600073ffffffffffffffffffffffffffffffffffffffff168273ffffffffffffffffffffffffffffffffffffffff16036117135760006040517f64a0ae9200000000000000000000000000000000000000000000000000000000815260040161170a919061276d565b60405180910390fd5b60006117218383600061134f565b9050600073ffffffffffffffffffffffffffffffffffffffff168173ffffffffffffffffffffffffffffffffffffffff16146117955760006040517f73c6ac6e00000000000000000000000000000000000000000000000000000000815260040161178c919061276d565b60405180910390fd5b505050565b60008373ffffffffffffffffffffffffffffffffffffffff163b111561194b578273ffffffffffffffffffffffffffffffffffffffff1663150b7a026117de611228565b8685856040518563ffffffff1660e01b815260040161180094939291906133e1565b6020604051808303816000875af192505050801561183c57506040513d601f19601f820116820180604052508101906118399190613442565b60015b6118c0573d806000811461186c576040519150601f19603f3d011682016040523d82523d6000602084013e611871565b606091505b5060008151036118b857836040517f64a0ae920000000000000000000000000000000000000000000000000000000081526004016118af919061276d565b60405180910390fd5b805181602001fd5b63150b7a0260e01b7bffffffffffffffffffffffffffffffffffffffffffffffffffffffff1916817bffffffffffffffffffffffffffffffffffffffffffffffffffffffff19161461194957836040517f64a0ae92000000000000000000000000000000000000000000000000000000008152600401611940919061276d565b60405180910390fd5b505b50505050565b606060405180602001604052806000815250905090565b60606000600161197784612248565b01905060008167ffffffffffffffff811115611996576119956129f8565b5b6040519080825280601f01601f1916602001820160405280156119c85781602001600182028036833780820191505090505b509050600082602001820190505b600115611a2b578080600190039150507f3031323334353637383961626364656600000000000000000000000000000000600a86061a8153600a8581611a1f57611a1e61346f565b5b049450600085036119d6575b819350505050919050565b611a3e611242565b600073ffffffffffffffffffffffffffffffffffffffff168173ffffffffffffffffffffffffffffffffffffffff1603611ab05760006040517f1e4fbdf7000000000000000000000000000000000000000000000000000000008152600401611aa7919061276d565b60405180910390fd5b611ab98161146c565b50565b60007f01ffc9a7000000000000000000000000000000000000000000000000000000007bffffffffffffffffffffffffffffffffffffffffffffffffffffffff1916827bffffffffffffffffffffffffffffffffffffffffffffffffffffffff1916149050919050565b60006002600083815260200190815260200160002060009054906101000a900473ffffffffffffffffffffffffffffffffffffffff169050919050565b8080611b9c5750600073ffffffffffffffffffffffffffffffffffffffff168273ffffffffffffffffffffffffffffffffffffffff1614155b15611cd0576000611bac84611163565b9050600073ffffffffffffffffffffffffffffffffffffffff168373ffffffffffffffffffffffffffffffffffffffff1614158015611c1757508273ffffffffffffffffffffffffffffffffffffffff168173ffffffffffffffffffffffffffffffffffffffff1614155b8015611c2a5750611c288184610f6a565b155b15611c6c57826040517fa9fbf51f000000000000000000000000000000000000000000000000000000008152600401611c63919061276d565b60405180910390fd5b8115611cce57838573ffffffffffffffffffffffffffffffffffffffff168273ffffffffffffffffffffffffffffffffffffffff167f8c5be1e5ebec7d5bd14f71427d1e84f3dd0314c0f7b2291e5b200ac8c7c3b92560405160405180910390a45b505b836004600085815260200190815260200160002060006101000a81548173ffffffffffffffffffffffffffffffffffffffff021916908373ffffffffffffffffffffffffffffffffffffffff16021790555050505050565b600080611d3484611b26565b9050600073ffffffffffffffffffffffffffffffffffffffff168373ffffffffffffffffffffffffffffffffffffffff1614611d7657611d7581848661239b565b5b600073ffffffffffffffffffffffffffffffffffffffff168173ffffffffffffffffffffffffffffffffffffffff1614611e0757611db8600085600080611b63565b6001600360008373ffffffffffffffffffffffffffffffffffffffff1673ffffffffffffffffffffffffffffffffffffffff168152602001908152602001600020600082825403925050819055505b600073ffffffffffffffffffffffffffffffffffffffff168573ffffffffffffffffffffffffffffffffffffffff1614611e8a576001600360008773ffffffffffffffffffffffffffffffffffffffff1673ffffffffffffffffffffffffffffffffffffffff168152602001908152602001600020600082825401925050819055505b846002600086815260200190815260200160002060006101000a81548173ffffffffffffffffffffffffffffffffffffffff021916908373ffffffffffffffffffffffffffffffffffffffff160217905550838573ffffffffffffffffffffffffffffffffffffffff168273ffffffffffffffffffffffffffffffffffffffff167fddf252ad1be2c89b69c2b068fc378daa952ba7f163c4a11628f55a4df523b3ef60405160405180910390a4809150509392505050565b6008805490506009600083815260200190815260200160002081905550600881908060018154018082558091505060019003906000526020600020016000909190919091505550565b6000611f9683610c71565b905060006007600084815260200190815260200160002054905081811461207b576000600660008673ffffffffffffffffffffffffffffffffffffffff1673ffffffffffffffffffffffffffffffffffffffff168152602001908152602001600020600084815260200190815260200160002054905080600660008773ffffffffffffffffffffffffffffffffffffffff1673ffffffffffffffffffffffffffffffffffffffff168152602001908152602001600020600084815260200190815260200160002081905550816007600083815260200190815260200160002081905550505b6007600084815260200190815260200160002060009055600660008573ffffffffffffffffffffffffffffffffffffffff1673ffffffffffffffffffffffffffffffffffffffff16815260200190815260200160002060008381526020019081526020016000206000905550505050565b60006001600880549050612100919061349e565b90506000600960008481526020019081526020016000205490506000600883815481106121305761212f612f30565b5b90600052602060002001549050806008838154811061215257612151612f30565b5b9060005260206000200181905550816009600083815260200190815260200160002081905550600960008581526020019081526020016000206000905560088054806121a1576121a06134d2565b5b6001900381819060005260206000200160009055905550505050565b600060016121ca84610c71565b6121d4919061349e565b905081600660008573ffffffffffffffffffffffffffffffffffffffff1673ffffffffffffffffffffffffffffffffffffffff168152602001908152602001600020600083815260200190815260200160002081905550806007600084815260200190815260200160002081905550505050565b600080600090507a184f03e93ff9f4daa797ed6e38ed64bf6a1f01000000000000000083106122a6577a184f03e93ff9f4daa797ed6e38ed64bf6a1f010000000000000000838161229c5761229b61346f565b5b0492506040810190505b6d04ee2d6d415b85acef810000000083106122e3576d04ee2d6d415b85acef810000000083816122d9576122d861346f565b5b0492506020810190505b662386f26fc10000831061231257662386f26fc1000083816123085761230761346f565b5b0492506010810190505b6305f5e100831061233b576305f5e10083816123315761233061346f565b5b0492506008810190505b61271083106123605761271083816123565761235561346f565b5b0492506004810190505b6064831061238357606483816123795761237861346f565b5b0492506002810190505b600a8310612392576001810190505b80915050919050565b6123a683838361245f565b61245a57600073ffffffffffffffffffffffffffffffffffffffff168373ffffffffffffffffffffffffffffffffffffffff160361241b57806040517f7e2732890000000000000000000000000000000000000000000000000000000081526004016124129190612803565b60405180910390fd5b81816040517f177e802f000000000000000000000000000000000000000000000000000000008152600401612451929190612f07565b60405180910390fd5b505050565b60008073ffffffffffffffffffffffffffffffffffffffff168373ffffffffffffffffffffffffffffffffffffffff161415801561251757508273ffffffffffffffffffffffffffffffffffffffff168473ffffffffffffffffffffffffffffffffffffffff1614806124d857506124d78484610f6a565b5b8061251657508273ffffffffffffffffffffffffffffffffffffffff166124fe836111eb565b73ffffffffffffffffffffffffffffffffffffffff16145b5b90509392505050565b6040518060800160405280606081526020016060815260200160608152602001606081525090565b6000604051905090565b600080fd5b600080fd5b60007fffffffff0000000000000000000000000000000000000000000000000000000082169050919050565b6125918161255c565b811461259c57600080fd5b50565b6000813590506125ae81612588565b92915050565b6000602082840312156125ca576125c9612552565b5b60006125d88482850161259f565b91505092915050565b60008115159050919050565b6125f6816125e1565b82525050565b600060208201905061261160008301846125ed565b92915050565b600081519050919050565b600082825260208201905092915050565b60005b83811015612651578082015181840152602081019050612636565b60008484015250505050565b6000601f19601f8301169050919050565b600061267982612617565b6126838185612622565b9350612693818560208601612633565b61269c8161265d565b840191505092915050565b600060208201905081810360008301526126c1818461266e565b905092915050565b6000819050919050565b6126dc816126c9565b81146126e757600080fd5b50565b6000813590506126f9816126d3565b92915050565b60006020828403121561271557612714612552565b5b6000612723848285016126ea565b91505092915050565b600073ffffffffffffffffffffffffffffffffffffffff82169050919050565b60006127578261272c565b9050919050565b6127678161274c565b82525050565b6000602082019050612782600083018461275e565b92915050565b6127918161274c565b811461279c57600080fd5b50565b6000813590506127ae81612788565b92915050565b600080604083850312156127cb576127ca612552565b5b60006127d98582860161279f565b92505060206127ea858286016126ea565b9150509250929050565b6127fd816126c9565b82525050565b600060208201905061281860008301846127f4565b92915050565b60008060006060848603121561283757612836612552565b5b60006128458682870161279f565b93505060206128568682870161279f565b9250506040612867868287016126ea565b9150509250925092565b600082825260208201905092915050565b600061288d82612617565b6128978185612871565b93506128a7818560208601612633565b6128b08161265d565b840191505092915050565b600060808301600083015184820360008601526128d88282612882565b915050602083015184820360208601526128f28282612882565b9150506040830151848203604086015261290c8282612882565b915050606083015184820360608601526129268282612882565b9150508091505092915050565b6000602082019050818103600083015261294d81846128bb565b905092915050565b60006020828403121561296b5761296a612552565b5b60006129798482850161279f565b91505092915050565b61298b816125e1565b811461299657600080fd5b50565b6000813590506129a881612982565b92915050565b600080604083850312156129c5576129c4612552565b5b60006129d38582860161279f565b92505060206129e485828601612999565b9150509250929050565b600080fd5b600080fd5b7f4e487b7100000000000000000000000000000000000000000000000000000000600052604160045260246000fd5b612a308261265d565b810181811067ffffffffffffffff82111715612a4f57612a4e6129f8565b5b80604052505050565b6000612a62612548565b9050612a6e8282612a27565b919050565b600067ffffffffffffffff821115612a8e57612a8d6129f8565b5b612a978261265d565b9050602081019050919050565b82818337600083830152505050565b6000612ac6612ac184612a73565b612a58565b905082815260208101848484011115612ae257612ae16129f3565b5b612aed848285612aa4565b509392505050565b600082601f830112612b0a57612b096129ee565b5b8135612b1a848260208601612ab3565b91505092915050565b600080600080600060a08688031215612b3f57612b3e612552565b5b6000612b4d8882890161279f565b955050602086013567ffffffffffffffff811115612b6e57612b6d612557565b5b612b7a88828901612af5565b945050604086013567ffffffffffffffff811115612b9b57612b9a612557565b5b612ba788828901612af5565b935050606086013567ffffffffffffffff811115612bc857612bc7612557565b5b612bd488828901612af5565b925050608086013567ffffffffffffffff811115612bf557612bf4612557565b5b612c0188828901612af5565b9150509295509295909350565b600067ffffffffffffffff821115612c2957612c286129f8565b5b612c328261265d565b9050602081019050919050565b6000612c52612c4d84612c0e565b612a58565b905082815260208101848484011115612c6e57612c6d6129f3565b5b612c79848285612aa4565b509392505050565b600082601f830112612c9657612c956129ee565b5b8135612ca6848260208601612c3f565b91505092915050565b60008060008060808587031215612cc957612cc8612552565b5b6000612cd78782880161279f565b9450506020612ce88782880161279f565b9350506040612cf9878288016126ea565b925050606085013567ffffffffffffffff811115612d1a57612d19612557565b5b612d2687828801612c81565b91505092959194509250565b60008060408385031215612d4957612d48612552565b5b6000612d578582860161279f565b9250506020612d688582860161279f565b9150509250929050565b7f4e487b7100000000000000000000000000000000000000000000000000000000600052602260045260246000fd5b60006002820490506001821680612db957607f821691505b602082108103612dcc57612dcb612d72565b5b50919050565b7f4552433732313a206f776e657220717565727920666f72206e6f6e657869737460008201527f656e7420746f6b656e0000000000000000000000000000000000000000000000602082015250565b6000612e2e602983612622565b9150612e3982612dd2565b604082019050919050565b60006020820190508181036000830152612e5d81612e21565b9050919050565b7f546f6b656e20616c7265616479207265766f6b65640000000000000000000000600082015250565b6000612e9a601583612622565b9150612ea582612e64565b602082019050919050565b60006020820190508181036000830152612ec981612e8d565b9050919050565b6000606082019050612ee5600083018661275e565b612ef260208301856127f4565b612eff604083018461275e565b949350505050565b6000604082019050612f1c600083018561275e565b612f2960208301846127f4565b9392505050565b7f4e487b7100000000000000000000000000000000000000000000000000000000600052603260045260246000fd5b7f517565727920666f72206e6f6e6578697374656e7420746f6b656e0000000000600082015250565b6000612f95601b83612622565b9150612fa082612f5f565b602082019050919050565b60006020820190508181036000830152612fc481612f88565b9050919050565b7f4e487b7100000000000000000000000000000000000000000000000000000000600052601160045260246000fd5b6000613005826126c9565b91507fffffffffffffffffffffffffffffffffffffffffffffffffffffffffffffffff820361303757613036612fcb565b5b600182019050919050565b60008190508160005260206000209050919050565b60006020601f8301049050919050565b600082821b905092915050565b6000600883026130a47fffffffffffffffffffffffffffffffffffffffffffffffffffffffffffffffff82613067565b6130ae8683613067565b95508019841693508086168417925050509392505050565b6000819050919050565b60006130eb6130e66130e1846126c9565b6130c6565b6126c9565b9050919050565b6000819050919050565b613105836130d0565b613119613111826130f2565b848454613074565b825550505050565b600090565b61312e613121565b6131398184846130fc565b505050565b5b8181101561315d57613152600082613126565b60018101905061313f565b5050565b601f8211156131a25761317381613042565b61317c84613057565b8101602085101561318b578190505b61319f61319785613057565b83018261313e565b50505b505050565b600082821c905092915050565b60006131c5600019846008026131a7565b1980831691505092915050565b60006131de83836131b4565b9150826002028217905092915050565b6131f782612617565b67ffffffffffffffff8111156132105761320f6129f8565b5b61321a8254612da1565b613225828285613161565b600060209050601f8311600181146132585760008415613246578287015190505b61325085826131d2565b8655506132b8565b601f19841661326686613042565b60005b8281101561328e57848901518255600182019150602085019450602081019050613269565b868310156132ab57848901516132a7601f8916826131b4565b8355505b6001600288020188555050505b505050505050565b600081905092915050565b60006132d682612617565b6132e081856132c0565b93506132f0818560208601612633565b80840191505092915050565b600061330882856132cb565b915061331482846132cb565b91508190509392505050565b7f4e6577206f776e657220697320746865207a65726f2061646472657373000000600082015250565b6000613356601d83612622565b915061336182613320565b602082019050919050565b6000602082019050818103600083015261338581613349565b9050919050565b600081519050919050565b600082825260208201905092915050565b60006133b38261338c565b6133bd8185613397565b93506133cd818560208601612633565b6133d68161265d565b840191505092915050565b60006080820190506133f6600083018761275e565b613403602083018661275e565b61341060408301856127f4565b818103606083015261342281846133a8565b905095945050505050565b60008151905061343c81612588565b92915050565b60006020828403121561345857613457612552565b5b60006134668482850161342d565b91505092915050565b7f4e487b7100000000000000000000000000000000000000000000000000000000600052601260045260246000fd5b60006134a9826126c9565b91506134b4836126c9565b92508282039050818111156134cc576134cb612fcb565b5b92915050565b7f4e487b7100000000000000000000000000000000000000000000000000000000600052603160045260246000fdfea264697066735822122036fe5432d7fca25ab11e887ecf18929b9a0a035dca618ae21e9c3ce4e58a962b64736f6c634300081b0033",
  "linkReferences": {},
  "deployedLinkReferences": {}
}