{
  "_format": "hh-sol-artifact-1",
  "contractName": "SoulboundNFT",
  "sourceName": "contracts/SoulboundNFT.sol",
  "abi": [
    {
      "inputs": [],
      "stateMutability": "nonpayable",
      "type": "constructor"
    },
    {
      "inputs": [],
      "name": "ERC721EnumerableForbiddenBatchMint",
      "type": "error"
    },
    {
      "inputs": [
        {
          "internalType": "address",
          "name": "sender",
          "type": "address"
        },
        {
          "internalType": "uint256",
          "name": "tokenId",
          "type": "uint256"
        },
        {
          "internalType": "address",
          "name": "owner",
          "type": "address"
        }
      ],
      "name": "ERC721IncorrectOwner",
      "type": "error"
    },
    {
      "inputs": [
        {
          "internalType": "address",
          "name": "operator",
          "type": "address"
        },
        {
          "internalType": "uint256",
          "name": "tokenId",
          "type": "uint256"
        }
      ],
      "name": "ERC721InsufficientApproval",
      "type": "error"
    },
    {
      "inputs": [
        {
          "internalType": "address",
          "name": "approver",
          "type": "address"
        }
      ],
      "name": "ERC721InvalidApprover",
      "type": "error"
    },
    {
      "inputs": [
        {
          "internalType": "address",
          "name": "operator",
          "type": "address"
        }
      ],
      "name": "ERC721InvalidOperator",
      "type": "error"
    },
    {
      "inputs": [
        {
          "internalType": "address",
          "name": "owner",
          "type": "address"
        }
      ],
      "name": "ERC721InvalidOwner",
      "type": "error"
    },
    {
      "inputs": [
        {
          "internalType": "address",
          "name": "receiver",
          "type": "address"
        }
      ],
      "name": "ERC721InvalidReceiver",
      "type": "error"
    },
    {
      "inputs": [
        {
          "internalType": "address",
          "name": "sender",
          "type": "address"
        }
      ],
      "name": "ERC721InvalidSender",
      "type": "error"
    },
    {
      "inputs": [
        {
          "internalType": "uint256",
          "name": "tokenId",
          "type": "uint256"
        }
      ],
      "name": "ERC721NonexistentToken",
      "type": "error"
    },
    {
      "inputs": [
        {
          "internalType": "address",
          "name": "owner",
          "type": "address"
        },
        {
          "internalType": "uint256",
          "name": "index",
          "type": "uint256"
        }
      ],
      "name": "ERC721OutOfBoundsIndex",
      "type": "error"
    },
    {
      "inputs": [
        {
          "internalType": "address",
          "name": "owner",
          "type": "address"
        }
      ],
      "name": "OwnableInvalidOwner",
      "type": "error"
    },
    {
      "inputs": [
        {
          "internalType": "address",
          "name": "account",
          "type": "address"
        }
      ],
      "name": "OwnableUnauthorizedAccount",
      "type": "error"
    },
    {
      "anonymous": false,
      "inputs": [
        {
          "indexed": true,
          "internalType": "address",
          "name": "owner",
          "type": "address"
        },
        {
          "indexed": true,
          "internalType": "address",
          "name": "approved",
          "type": "address"
        },
        {
          "indexed": true,
          "internalType": "uint256",
          "name": "tokenId",
          "type": "uint256"
        }
      ],
      "name": "Approval",
      "type": "event"
    },
    {
      "anonymous": false,
      "inputs": [
        {
          "indexed": true,
          "internalType": "address",
          "name": "owner",
          "type": "address"
        },
        {
          "indexed": true,
          "internalType": "address",
          "name": "operator",
          "type": "address"
        },
        {
          "indexed": false,
          "internalType": "bool",
          "name": "approved",
          "type": "bool"
        }
      ],
      "name": "ApprovalForAll",
      "type": "event"
    },
    {
      "anonymous": false,
      "inputs": [
        {
          "indexed": true,
          "internalType": "address",
          "name": "previousOwner",
          "type": "address"
        },
        {
          "indexed": true,
          "internalType": "address",
          "name": "newOwner",
          "type": "address"
        }
      ],
      "name": "OwnershipTransferred",
      "type": "event"
    },
    {
      "anonymous": false,
      "inputs": [
        {
          "indexed": true,
          "internalType": "address",
          "name": "from",
          "type": "address"
        },
        {
          "indexed": true,
          "internalType": "address",
          "name": "to",
          "type": "address"
        },
        {
          "indexed": true,
          "internalType": "uint256",
          "name": "tokenId",
          "type": "uint256"
        }
      ],
      "name": "Transfer",
      "type": "event"
    },
    {
      "inputs": [
        {
          "internalType": "address",
          "name": "to",
          "type": "address"
        },
        {
          "internalType": "uint256",
          "name": "tokenId",
          "type": "uint256"
        }
      ],
      "name": "approve",
      "outputs": [],
      "stateMutability": "nonpayable",
      "type": "function"
    },
    {
      "inputs": [
        {
          "internalType": "address",
          "name": "owner",
          "type": "address"
        }
      ],
      "name": "balanceOf",
      "outputs": [
        {
          "internalType": "uint256",
          "name": "",
          "type": "uint256"
        }
      ],
      "stateMutability": "view",
      "type": "function"
    },
    {
      "inputs": [
        {
          "internalType": "uint256",
          "name": "tokenId",
          "type": "uint256"
        }
      ],
      "name": "burn",
      "outputs": [],
      "stateMutability": "nonpayable",
      "type": "function"
    },
    {
      "inputs": [
        {
          "internalType": "uint256",
          "name": "tokenId",
          "type": "uint256"
        }
      ],
      "name": "exists",
      "outputs": [
        {
          "internalType": "bool",
          "name": "",
          "type": "bool"
        }
      ],
      "stateMutability": "view",
      "type": "function"
    },
    {
      "inputs": [
        {
          "internalType": "uint256",
          "name": "tokenId",
          "type": "uint256"
        }
      ],
      "name": "getApproved",
      "outputs": [
        {
          "internalType": "address",
          "name": "",
          "type": "address"
        }
      ],
      "stateMutability": "view",
      "type": "function"
    },
    {
      "inputs": [],
      "name": "getOwner",
      "outputs": [
        {
          "internalType": "address",
          "name": "",
          "type": "address"
        }
      ],
      "stateMutability": "view",
      "type": "function"
    },
    {
      "inputs": [
        {
          "internalType": "uint256",
          "name": "tokenId",
          "type": "uint256"
        }
      ],
      "name": "getTokenMetadata",
      "outputs": [
        {
          "components": [
            {
              "internalType": "string",
              "name": "name",
              "type": "string"
            },
            {
              "internalType": "string",
              "name": "surname",
              "type": "string"
            },
            {
              "internalType": "string",
              "name": "workplace",
              "type": "string"
            },
            {
              "internalType": "string",
              "name": "imageUrl",
              "type": "string"
            }
          ],
          "internalType": "struct SoulboundNFT.NFTMetadata",
          "name": "",
          "type": "tuple"
        }
      ],
      "stateMutability": "view",
      "type": "function"
    },
    {
      "inputs": [
        {
          "internalType": "address",
          "name": "owner",
          "type": "address"
        },
        {
          "internalType": "address",
          "name": "operator",
          "type": "address"
        }
      ],
      "name": "isApprovedForAll",
      "outputs": [
        {
          "internalType": "bool",
          "name": "",
          "type": "bool"
        }
      ],
      "stateMutability": "view",
      "type": "function"
    },
    {
      "inputs": [
        {
          "internalType": "address",
          "name": "to",
          "type": "address"
        },
        {
          "internalType": "string",
          "name": "name",
          "type": "string"
        },
        {
          "internalType": "string",
          "name": "surname",
          "type": "string"
        },
        {
          "internalType": "string",
          "name": "workplace",
          "type": "string"
        },
        {
          "internalType": "string",
          "name": "imageUrl",
          "type": "string"
        }
      ],
      "name": "mint",
      "outputs": [],
      "stateMutability": "nonpayable",
      "type": "function"
    },
    {
      "inputs": [],
      "name": "name",
      "outputs": [
        {
          "internalType": "string",
          "name": "",
          "type": "string"
        }
      ],
      "stateMutability": "view",
      "type": "function"
    },
    {
      "inputs": [],
      "name": "owner",
      "outputs": [
        {
          "internalType": "address",
          "name": "",
          "type": "address"
        }
      ],
      "stateMutability": "view",
      "type": "function"
    },
    {
      "inputs": [
        {
          "internalType": "uint256",
          "name": "tokenId",
          "type": "uint256"
        }
      ],
      "name": "ownerOf",
      "outputs": [
        {
          "internalType": "address",
          "name": "",
          "type": "address"
        }
      ],
      "stateMutability": "view",
      "type": "function"
    },
    {
      "inputs": [],
      "name": "renounceOwnership",
      "outputs": [],
      "stateMutability": "nonpayable",
      "type": "function"
    },
    {
      "inputs": [
        {
          "internalType": "uint256",
          "name": "tokenId",
          "type": "uint256"
        }
      ],
      "name": "revoke",
      "outputs": [],
      "stateMutability": "nonpayable",
      "type": "function"
    },
    {
      "inputs": [
        {
          "internalType": "address",
          "name": "from",
          "type": "address"
        },
        {
          "internalType": "address",
          "name": "to",
          "type": "address"
        },
        {
          "internalType": "uint256",
          "name": "tokenId",
          "type": "uint256"
        }
      ],
      "name": "safeTransferFrom",
      "outputs": [],
      "stateMutability": "nonpayable",
      "type": "function"
    },
    {
      "inputs": [
        {
          "internalType": "address",
          "name": "from",
          "type": "address"
        },
        {
          "internalType": "address",
          "name": "to",
          "type": "address"
        },
        {
          "internalType": "uint256",
          "name": "tokenId",
          "type": "uint256"
        },
        {
          "internalType": "bytes",
          "name": "data",
          "type": "bytes"
        }
      ],
      "name": "safeTransferFrom",
      "outputs": [],
      "stateMutability": "nonpayable",
      "type": "function"
    },
    {
      "inputs": [
        {
          "internalType": "address",
          "name": "operator",
          "type": "address"
        },
        {
          "internalType": "bool",
          "name": "approved",
          "type": "bool"
        }
      ],
      "name": "setApprovalForAll",
      "outputs": [],
      "stateMutability": "nonpayable",
      "type": "function"
    },
    {
      "inputs": [
        {
          "internalType": "bytes4",
          "name": "interfaceId",
          "type": "bytes4"
        }
      ],
      "name": "supportsInterface",
      "outputs": [
        {
          "internalType": "bool",
          "name": "",
          "type": "bool"
        }
      ],
      "stateMutability": "view",
      "type": "function"
    },
    {
      "inputs": [],
      "name": "symbol",
      "outputs": [
        {
          "internalType": "string",
          "name": "",
          "type": "string"
        }
      ],
      "stateMutability": "view",
      "type": "function"
    },
    {
      "inputs": [
        {
          "internalType": "uint256",
          "name": "index",
          "type": "uint256"
        }
      ],
      "name": "tokenByIndex",
      "outputs": [
        {
          "internalType": "uint256",
          "name": "",
          "type": "uint256"
        }
      ],
      "stateMutability": "view",
      "type": "function"
    },
    {
      "inputs": [
        {
          "internalType": "address",
          "name": "owner",
          "type": "address"
        },
        {
          "internalType": "uint256",
          "name": "index",
          "type": "uint256"
        }
      ],
      "name": "tokenOfOwnerByIndex",
      "outputs": [
        {
          "internalType": "uint256",
          "name": "",
          "type": "uint256"
        }
      ],
      "stateMutability": "view",
      "type": "function"
    },
    {
      "inputs": [
        {
          "internalType": "uint256",
          "name": "tokenId",
          "type": "uint256"
        }
      ],
      "name": "tokenURI",
      "outputs": [
        {
          "internalType": "string",
          "name": "",
          "type": "string"
        }
      ],
      "stateMutability": "view",
      "type": "function"
    },
    {
      "inputs": [],
      "name": "totalSupply",
      "outputs": [
        {
          "internalType": "uint256",
          "name": "",
          "type": "uint256"
        }
      ],
      "stateMutability": "view",
      "type": "function"
    },
    {
      "inputs": [
        {
          "internalType": "address",
          "name": "from",
          "type": "address"
        },
        {
          "internalType": "address",
          "name": "to",
          "type": "address"
        },
        {
          "internalType": "uint256",
          "name": "tokenId",
          "type": "uint256"
        }
      ],
      "name": "transferFrom",
      "outputs": [],
      "stateMutability": "nonpayable",
      "type": "function"
    },
    {
      "inputs": [
        {
          "internalType": "address",
          "name": "newOwner",
          "type": "address"
        }
      ],
      "name": "transferOwnership",
      "outputs": [],
      "stateMutability": "nonpayable",
      "type": "function"
    }
  ],
  "bytecode": "0x608060405234801561001057600080fd5b50336040518060400160405280600c81526020017f536f756c626f756e644e465400000000000000000000000000000000000000008152506040518060400160405280600581526020017f53424e4654000000000000000000000000000000000000000000000000000000815250816000908161008d919061043d565b50806001908161009d919061043d565b505050600073ffffffffffffffffffffffffffffffffffffffff168173ffffffffffffffffffffffffffffffffffffffff16036101125760006040517f1e4fbdf70000000000000000000000000000000000000000000000000000000081526004016101099190610550565b60405180910390fd5b6101218161012760201b60201c565b5061056b565b6000600a60009054906101000a900473ffffffffffffffffffffffffffffffffffffffff16905081600a60006101000a81548173ffffffffffffffffffffffffffffffffffffffff021916908373ffffffffffffffffffffffffffffffffffffffff1602179055508173ffffffffffffffffffffffffffffffffffffffff168173ffffffffffffffffffffffffffffffffffffffff167f8be0079c531659141344cd1fd0a4f28419497f9722a3daafe3b4186f6b6457e060405160405180910390a35050565b600081519050919050565b7f4e487b7100000000000000000000000000000000000000000000000000000000600052604160045260246000fd5b7f4e487b7100000000000000000000000000000000000000000000000000000000600052602260045260246000fd5b6000600282049050600182168061026e57607f821691505b60208210810361028157610280610227565b5b50919050565b60008190508160005260206000209050919050565b60006020601f8301049050919050565b600082821b905092915050565b6000600883026102e97fffffffffffffffffffffffffffffffffffffffffffffffffffffffffffffffff826102ac565b6102f386836102ac565b95508019841693508086168417925050509392505050565b6000819050919050565b6000819050919050565b600061033a6103356103308461030b565b610315565b61030b565b9050919050565b6000819050919050565b6103548361031f565b61036861036082610341565b8484546102b9565b825550505050565b600090565b61037d610370565b61038881848461034b565b505050565b5b818110156103ac576103a1600082610375565b60018101905061038e565b5050565b601f8211156103f1576103c281610287565b6103cb8461029c565b810160208510156103da578190505b6103ee6103e68561029c565b83018261038d565b50505b505050565b600082821c905092915050565b6000610414600019846008026103f6565b1980831691505092915050565b600061042d8383610403565b9150826002028217905092915050565b610446826101ed565b67ffffffffffffffff81111561045f5761045e6101f8565b5b6104698254610256565b6104748282856103b0565b600060209050601f8311600181146104a75760008415610495578287015190505b61049f8582610421565b865550610507565b601f1984166104b586610287565b60005b828110156104dd578489015182556001820191506020850194506020810190506104b8565b868310156104fa57848901516104f6601f891682610403565b8355505b6001600288020188555050505b505050505050565b600073ffffffffffffffffffffffffffffffffffffffff82169050919050565b600061053a8261050f565b9050919050565b61054a8161052f565b82525050565b60006020820190506105656000830184610541565b92915050565b6135828061057a6000396000f3fe608060405234801561001057600080fd5b50600436106101735760003560e01c806360316801116100de57806395d89b4111610097578063b88d4fde11610071578063b88d4fde1461045c578063c87b56dd14610478578063e985e9c5146104a8578063f2fde38b146104d857610173565b806395d89b4114610406578063a22cb46514610424578063a40d1b101461044057610173565b806360316801146103305780636352211e1461036057806370a0823114610390578063715018a6146103c0578063893d20e8146103ca5780638da5cb5b146103e857610173565b806323b872dd1161013057806323b872dd1461024c5780632f745c591461026857806342842e0e1461029857806342966c68146102b45780634f558e79146102d05780634f6ccce71461030057610173565b806301ffc9a71461017857806306fdde03146101a8578063081812fc146101c6578063095ea7b3146101f657806318160ddd1461021257806320c5429b14610230575b600080fd5b610192600480360381019061018d91906125ff565b6104f4565b60405161019f9190612647565b60405180910390f35b6101b061056e565b6040516101bd91906126f2565b60405180910390f35b6101e060048036038101906101db919061274a565b610600565b6040516101ed91906127b8565b60405180910390f35b610210600480360381019061020b91906127ff565b61061c565b005b61021a610632565b604051610227919061284e565b60405180910390f35b61024a6004803603810190610245919061274a565b61063f565b005b61026660048036038101906102619190612869565b610757565b005b610282600480360381019061027d91906127ff565b610859565b60405161028f919061284e565b60405180910390f35b6102b260048036038101906102ad9190612869565b610902565b005b6102ce60048036038101906102c9919061274a565b610922565b005b6102ea60048036038101906102e5919061274a565b610936565b6040516102f79190612647565b60405180910390f35b61031a6004803603810190610315919061274a565b610977565b604051610327919061284e565b60405180910390f35b61034a6004803603810190610345919061274a565b6109ed565b604051610357919061297e565b60405180910390f35b61037a6004803603810190610375919061274a565b610caa565b60405161038791906127b8565b60405180910390f35b6103aa60048036038101906103a591906129a0565b610cbc565b6040516103b7919061284e565b60405180910390f35b6103c8610d76565b005b6103d2610d8a565b6040516103df91906127b8565b60405180910390f35b6103f0610d99565b6040516103fd91906127b8565b60405180910390f35b61040e610dc3565b60405161041b91906126f2565b60405180910390f35b61043e600480360381019061043991906129f9565b610e55565b005b61045a60048036038101906104559190612b6e565b610e6b565b005b61047660048036038101906104719190612cfa565b610f2f565b005b610492600480360381019061048d919061274a565b610f4c565b60405161049f91906126f2565b60405180910390f35b6104c260048036038101906104bd9190612d7d565b610fb5565b6040516104cf9190612647565b60405180910390f35b6104f260048036038101906104ed91906129a0565b611049565b005b60007f780e9d63000000000000000000000000000000000000000000000000000000007bffffffffffffffffffffffffffffffffffffffffffffffffffffffff1916827bffffffffffffffffffffffffffffffffffffffffffffffffffffffff191614806105675750610566826110cc565b5b9050919050565b60606000805461057d90612dec565b80601f01602080910402602001604051908101604052809291908181526020018280546105a990612dec565b80156105f65780601f106105cb576101008083540402835291602001916105f6565b820191906000526020600020905b8154815290600101906020018083116105d957829003601f168201915b5050505050905090565b600061060b826111ae565b5061061582611236565b9050919050565b61062e8282610629611273565b61127b565b5050565b6000600880549050905090565b61064761128d565b600073ffffffffffffffffffffffffffffffffffffffff1661066882610caa565b73ffffffffffffffffffffffffffffffffffffffff16036106be576040517f08c379a00000000000000000000000000000000000000000000000000000000081526004016106b590612e8f565b60405180910390fd5b600c600082815260200190815260200160002060009054906101000a900460ff161561071f576040517f08c379a000000000000000000000000000000000000000000000000000000000815260040161071690612efb565b60405180910390fd5b6001600c600083815260200190815260200160002060006101000a81548160ff02191690831515021790555061075481611314565b50565b600073ffffffffffffffffffffffffffffffffffffffff168273ffffffffffffffffffffffffffffffffffffffff16036107c95760006040517f64a0ae920000000000000000000000000000000000000000000000000000000081526004016107c091906127b8565b60405180910390fd5b60006107dd83836107d8611273565b61139a565b90508373ffffffffffffffffffffffffffffffffffffffff168173ffffffffffffffffffffffffffffffffffffffff1614610853578382826040517f64283d7b00000000000000000000000000000000000000000000000000000000815260040161084a93929190612f1b565b60405180910390fd5b50505050565b600061086483610cbc565b82106108a95782826040517fa57d13dc0000000000000000000000000000000000000000000000000000000081526004016108a0929190612f52565b60405180910390fd5b600660008473ffffffffffffffffffffffffffffffffffffffff1673ffffffffffffffffffffffffffffffffffffffff168152602001908152602001600020600083815260200190815260200160002054905092915050565b61091d83838360405180602001604052806000815250610f2f565b505050565b61092a61128d565b61093381611314565b50565b60008073ffffffffffffffffffffffffffffffffffffffff1661095883610caa565b73ffffffffffffffffffffffffffffffffffffffff1614159050919050565b6000610981610632565b82106109c7576000826040517fa57d13dc0000000000000000000000000000000000000000000000000000000081526004016109be929190612f52565b60405180910390fd5b600882815481106109db576109da612f7b565b5b90600052602060002001549050919050565b6109f561256b565b6109fe82610936565b610a3d576040517f08c379a0000000000000000000000000000000000000000000000000000000008152600401610a3490612ff6565b60405180910390fd5b600d6000838152602001908152602001600020604051806080016040529081600082018054610a6b90612dec565b80601f0160208091040260200160405190810160405280929190818152602001828054610a9790612dec565b8015610ae45780601f10610ab957610100808354040283529160200191610ae4565b820191906000526020600020905b815481529060010190602001808311610ac757829003601f168201915b50505050508152602001600182018054610afd90612dec565b80601f0160208091040260200160405190810160405280929190818152602001828054610b2990612dec565b8015610b765780601f10610b4b57610100808354040283529160200191610b76565b820191906000526020600020905b815481529060010190602001808311610b5957829003601f168201915b50505050508152602001600282018054610b8f90612dec565b80601f0160208091040260200160405190810160405280929190818152602001828054610bbb90612dec565b8015610c085780601f10610bdd57610100808354040283529160200191610c08565b820191906000526020600020905b815481529060010190602001808311610beb57829003601f168201915b50505050508152602001600382018054610c2190612dec565b80601f0160208091040260200160405190810160405280929190818152602001828054610c4d90612dec565b8015610c9a5780601f10610c6f57610100808354040283529160200191610c9a565b820191906000526020600020905b815481529060010190602001808311610c7d57829003601f168201915b5050505050815250509050919050565b6000610cb5826111ae565b9050919050565b60008073ffffffffffffffffffffffffffffffffffffffff168273ffffffffffffffffffffffffffffffffffffffff1603610d2f5760006040517f89c62b64000000000000000000000000000000000000000000000000000000008152600401610d2691906127b8565b60405180910390fd5b600360008373ffffffffffffffffffffffffffffffffffffffff1673ffffffffffffffffffffffffffffffffffffffff168152602001908152602001600020549050919050565b610d7e61128d565b610d8860006114b7565b565b6000610d94610d99565b905090565b6000600a60009054906101000a900473ffffffffffffffffffffffffffffffffffffffff16905090565b606060018054610dd290612dec565b80601f0160208091040260200160405190810160405280929190818152602001828054610dfe90612dec565b8015610e4b5780601f10610e2057610100808354040283529160200191610e4b565b820191906000526020600020905b815481529060010190602001808311610e2e57829003601f168201915b5050505050905090565b610e67610e60611273565b838361157d565b5050565b610e7361128d565b6000600b6000815480929190610e8890613045565b919050559050610e9886826116ec565b604051806080016040528086815260200185815260200184815260200183815250600d60008381526020019081526020016000206000820151816000019081610ee19190613239565b506020820151816001019081610ef79190613239565b506040820151816002019081610f0d9190613239565b506060820151816003019081610f239190613239565b50905050505050505050565b610f3a848484610757565b610f46848484846117e5565b50505050565b6060610f57826111ae565b506000610f6261199c565b90506000815111610f825760405180602001604052806000815250610fad565b80610f8c846119b3565b604051602001610f9d929190613347565b6040516020818303038152906040525b915050919050565b6000600560008473ffffffffffffffffffffffffffffffffffffffff1673ffffffffffffffffffffffffffffffffffffffff16815260200190815260200160002060008373ffffffffffffffffffffffffffffffffffffffff1673ffffffffffffffffffffffffffffffffffffffff16815260200190815260200160002060009054906101000a900460ff16905092915050565b61105161128d565b600073ffffffffffffffffffffffffffffffffffffffff168173ffffffffffffffffffffffffffffffffffffffff16036110c0576040517f08c379a00000000000000000000000000000000000000000000000000000000081526004016110b7906133b7565b60405180910390fd5b6110c981611a81565b50565b60007f80ac58cd000000000000000000000000000000000000000000000000000000007bffffffffffffffffffffffffffffffffffffffffffffffffffffffff1916827bffffffffffffffffffffffffffffffffffffffffffffffffffffffff1916148061119757507f5b5e139f000000000000000000000000000000000000000000000000000000007bffffffffffffffffffffffffffffffffffffffffffffffffffffffff1916827bffffffffffffffffffffffffffffffffffffffffffffffffffffffff1916145b806111a757506111a682611b07565b5b9050919050565b6000806111ba83611b71565b9050600073ffffffffffffffffffffffffffffffffffffffff168173ffffffffffffffffffffffffffffffffffffffff160361122d57826040517f7e273289000000000000000000000000000000000000000000000000000000008152600401611224919061284e565b60405180910390fd5b80915050919050565b60006004600083815260200190815260200160002060009054906101000a900473ffffffffffffffffffffffffffffffffffffffff169050919050565b600033905090565b6112888383836001611bae565b505050565b611295611273565b73ffffffffffffffffffffffffffffffffffffffff166112b3610d99565b73ffffffffffffffffffffffffffffffffffffffff1614611312576112d6611273565b6040517f118cdaa700000000000000000000000000000000000000000000000000000000815260040161130991906127b8565b60405180910390fd5b565b6000611323600083600061139a565b9050600073ffffffffffffffffffffffffffffffffffffffff168173ffffffffffffffffffffffffffffffffffffffff160361139657816040517f7e27328900000000000000000000000000000000000000000000000000000000815260040161138d919061284e565b60405180910390fd5b5050565b6000806113a8858585611d73565b9050600073ffffffffffffffffffffffffffffffffffffffff168173ffffffffffffffffffffffffffffffffffffffff16036113ec576113e784611f8d565b61142b565b8473ffffffffffffffffffffffffffffffffffffffff168173ffffffffffffffffffffffffffffffffffffffff161461142a576114298185611fd6565b5b5b600073ffffffffffffffffffffffffffffffffffffffff168573ffffffffffffffffffffffffffffffffffffffff160361146d5761146884612137565b6114ac565b8473ffffffffffffffffffffffffffffffffffffffff168173ffffffffffffffffffffffffffffffffffffffff16146114ab576114aa8585612208565b5b5b809150509392505050565b6000600a60009054906101000a900473ffffffffffffffffffffffffffffffffffffffff16905081600a60006101000a81548173ffffffffffffffffffffffffffffffffffffffff021916908373ffffffffffffffffffffffffffffffffffffffff1602179055508173ffffffffffffffffffffffffffffffffffffffff168173ffffffffffffffffffffffffffffffffffffffff167f8be0079c531659141344cd1fd0a4f28419497f9722a3daafe3b4186f6b6457e060405160405180910390a35050565b600073ffffffffffffffffffffffffffffffffffffffff168273ffffffffffffffffffffffffffffffffffffffff16036115ee57816040517f5b08ba180000000000000000000000000000000000000000000000000000000081526004016115e591906127b8565b60405180910390fd5b80600560008573ffffffffffffffffffffffffffffffffffffffff1673ffffffffffffffffffffffffffffffffffffffff16815260200190815260200160002060008473ffffffffffffffffffffffffffffffffffffffff1673ffffffffffffffffffffffffffffffffffffffff16815260200190815260200160002060006101000a81548160ff0219169083151502179055508173ffffffffffffffffffffffffffffffffffffffff168373ffffffffffffffffffffffffffffffffffffffff167f17307eab39ab6107e8899845ad3d59bd9653f200f220920489ca2b5937696c31836040516116df9190612647565b60405180910390a3505050565b600073ffffffffffffffffffffffffffffffffffffffff168273ffffffffffffffffffffffffffffffffffffffff160361175e5760006040517f64a0ae9200000000000000000000000000000000000000000000000000000000815260040161175591906127b8565b60405180910390fd5b600061176c8383600061139a565b9050600073ffffffffffffffffffffffffffffffffffffffff168173ffffffffffffffffffffffffffffffffffffffff16146117e05760006040517f73c6ac6e0000000000000000000000000000000000000000000000000000000081526004016117d791906127b8565b60405180910390fd5b505050565b60008373ffffffffffffffffffffffffffffffffffffffff163b1115611996578273ffffffffffffffffffffffffffffffffffffffff1663150b7a02611829611273565b8685856040518563ffffffff1660e01b815260040161184b949392919061342c565b6020604051808303816000875af192505050801561188757506040513d601f19601f82011682018060405250810190611884919061348d565b60015b61190b573d80600081146118b7576040519150601f19603f3d011682016040523d82523d6000602084013e6118bc565b606091505b50600081510361190357836040517f64a0ae920000000000000000000000000000000000000000000000000000000081526004016118fa91906127b8565b60405180910390fd5b805181602001fd5b63150b7a0260e01b7bffffffffffffffffffffffffffffffffffffffffffffffffffffffff1916817bffffffffffffffffffffffffffffffffffffffffffffffffffffffff19161461199457836040517f64a0ae9200000000000000000000000000000000000000000000000000000000815260040161198b91906127b8565b60405180910390fd5b505b50505050565b606060405180602001604052806000815250905090565b6060600060016119c284612293565b01905060008167ffffffffffffffff8111156119e1576119e0612a43565b5b6040519080825280601f01601f191660200182016040528015611a135781602001600182028036833780820191505090505b509050600082602001820190505b600115611a76578080600190039150507f3031323334353637383961626364656600000000000000000000000000000000600a86061a8153600a8581611a6a57611a696134ba565b5b04945060008503611a21575b819350505050919050565b611a8961128d565b600073ffffffffffffffffffffffffffffffffffffffff168173ffffffffffffffffffffffffffffffffffffffff1603611afb5760006040517f1e4fbdf7000000000000000000000000000000000000000000000000000000008152600401611af291906127b8565b60405180910390fd5b611b04816114b7565b50565b60007f01ffc9a7000000000000000000000000000000000000000000000000000000007bffffffffffffffffffffffffffffffffffffffffffffffffffffffff1916827bffffffffffffffffffffffffffffffffffffffffffffffffffffffff1916149050919050565b60006002600083815260200190815260200160002060009054906101000a900473ffffffffffffffffffffffffffffffffffffffff169050919050565b8080611be75750600073ffffffffffffffffffffffffffffffffffffffff168273ffffffffffffffffffffffffffffffffffffffff1614155b15611d1b576000611bf7846111ae565b9050600073ffffffffffffffffffffffffffffffffffffffff168373ffffffffffffffffffffffffffffffffffffffff1614158015611c6257508273ffffffffffffffffffffffffffffffffffffffff168173ffffffffffffffffffffffffffffffffffffffff1614155b8015611c755750611c738184610fb5565b155b15611cb757826040517fa9fbf51f000000000000000000000000000000000000000000000000000000008152600401611cae91906127b8565b60405180910390fd5b8115611d1957838573ffffffffffffffffffffffffffffffffffffffff168273ffffffffffffffffffffffffffffffffffffffff167f8c5be1e5ebec7d5bd14f71427d1e84f3dd0314c0f7b2291e5b200ac8c7c3b92560405160405180910390a45b505b836004600085815260200190815260200160002060006101000a81548173ffffffffffffffffffffffffffffffffffffffff021916908373ffffffffffffffffffffffffffffffffffffffff16021790555050505050565b600080611d7f84611b71565b9050600073ffffffffffffffffffffffffffffffffffffffff168373ffffffffffffffffffffffffffffffffffffffff1614611dc157611dc08184866123e6565b5b600073ffffffffffffffffffffffffffffffffffffffff168173ffffffffffffffffffffffffffffffffffffffff1614611e5257611e03600085600080611bae565b6001600360008373ffffffffffffffffffffffffffffffffffffffff1673ffffffffffffffffffffffffffffffffffffffff168152602001908152602001600020600082825403925050819055505b600073ffffffffffffffffffffffffffffffffffffffff168573ffffffffffffffffffffffffffffffffffffffff1614611ed5576001600360008773ffffffffffffffffffffffffffffffffffffffff1673ffffffffffffffffffffffffffffffffffffffff168152602001908152602001600020600082825401925050819055505b846002600086815260200190815260200160002060006101000a81548173ffffffffffffffffffffffffffffffffffffffff021916908373ffffffffffffffffffffffffffffffffffffffff160217905550838573ffffffffffffffffffffffffffffffffffffffff168273ffffffffffffffffffffffffffffffffffffffff167fddf252ad1be2c89b69c2b068fc378daa952ba7f163c4a11628f55a4df523b3ef60405160405180910390a4809150509392505050565b6008805490506009600083815260200190815260200160002081905550600881908060018154018082558091505060019003906000526020600020016000909190919091505550565b6000611fe183610cbc565b90506000600760008481526020019081526020016000205490508181146120c6576000600660008673ffffffffffffffffffffffffffffffffffffffff1673ffffffffffffffffffffffffffffffffffffffff168152602001908152602001600020600084815260200190815260200160002054905080600660008773ffffffffffffffffffffffffffffffffffffffff1673ffffffffffffffffffffffffffffffffffffffff168152602001908152602001600020600084815260200190815260200160002081905550816007600083815260200190815260200160002081905550505b6007600084815260200190815260200160002060009055600660008573ffffffffffffffffffffffffffffffffffffffff1673ffffffffffffffffffffffffffffffffffffffff16815260200190815260200160002060008381526020019081526020016000206000905550505050565b6000600160088054905061214b91906134e9565b905060006009600084815260200190815260200160002054905060006008838154811061217b5761217a612f7b565b5b90600052602060002001549050806008838154811061219d5761219c612f7b565b5b9060005260206000200181905550816009600083815260200190815260200160002081905550600960008581526020019081526020016000206000905560088054806121ec576121eb61351d565b5b6001900381819060005260206000200160009055905550505050565b6000600161221584610cbc565b61221f91906134e9565b905081600660008573ffffffffffffffffffffffffffffffffffffffff1673ffffffffffffffffffffffffffffffffffffffff168152602001908152602001600020600083815260200190815260200160002081905550806007600084815260200190815260200160002081905550505050565b600080600090507a184f03e93ff9f4daa797ed6e38ed64bf6a1f01000000000000000083106122f1577a184f03e93ff9f4daa797ed6e38ed64bf6a1f01000000000000000083816122e7576122e66134ba565b5b0492506040810190505b6d04ee2d6d415b85acef8100000000831061232e576d04ee2d6d415b85acef81000000008381612324576123236134ba565b5b0492506020810190505b662386f26fc10000831061235d57662386f26fc100008381612353576123526134ba565b5b0492506010810190505b6305f5e1008310612386576305f5e100838161237c5761237b6134ba565b5b0492506008810190505b61271083106123ab5761271083816123a1576123a06134ba565b5b0492506004810190505b606483106123ce57606483816123c4576123c36134ba565b5b0492506002810190505b600a83106123dd576001810190505b80915050919050565b6123f18383836124aa565b6124a557600073ffffffffffffffffffffffffffffffffffffffff168373ffffffffffffffffffffffffffffffffffffffff160361246657806040517f7e27328900000000000000000000000000000000000000000000000000000000815260040161245d919061284e565b60405180910390fd5b81816040517f177e802f00000000000000000000000000000000000000000000000000000000815260040161249c929190612f52565b60405180910390fd5b505050565b60008073ffffffffffffffffffffffffffffffffffffffff168373ffffffffffffffffffffffffffffffffffffffff161415801561256257508273ffffffffffffffffffffffffffffffffffffffff168473ffffffffffffffffffffffffffffffffffffffff16148061252357506125228484610fb5565b5b8061256157508273ffffffffffffffffffffffffffffffffffffffff1661254983611236565b73ffffffffffffffffffffffffffffffffffffffff16145b5b90509392505050565b6040518060800160405280606081526020016060815260200160608152602001606081525090565b6000604051905090565b600080fd5b600080fd5b60007fffffffff0000000000000000000000000000000000000000000000000000000082169050919050565b6125dc816125a7565b81146125e757600080fd5b50565b6000813590506125f9816125d3565b92915050565b6000602082840312156126155761261461259d565b5b6000612623848285016125ea565b91505092915050565b60008115159050919050565b6126418161262c565b82525050565b600060208201905061265c6000830184612638565b92915050565b600081519050919050565b600082825260208201905092915050565b60005b8381101561269c578082015181840152602081019050612681565b60008484015250505050565b6000601f19601f8301169050919050565b60006126c482612662565b6126ce818561266d565b93506126de81856020860161267e565b6126e7816126a8565b840191505092915050565b6000602082019050818103600083015261270c81846126b9565b905092915050565b6000819050919050565b61272781612714565b811461273257600080fd5b50565b6000813590506127448161271e565b92915050565b6000602082840312156127605761275f61259d565b5b600061276e84828501612735565b91505092915050565b600073ffffffffffffffffffffffffffffffffffffffff82169050919050565b60006127a282612777565b9050919050565b6127b281612797565b82525050565b60006020820190506127cd60008301846127a9565b92915050565b6127dc81612797565b81146127e757600080fd5b50565b6000813590506127f9816127d3565b92915050565b600080604083850312156128165761281561259d565b5b6000612824858286016127ea565b925050602061283585828601612735565b9150509250929050565b61284881612714565b82525050565b6000602082019050612863600083018461283f565b92915050565b6000806000606084860312156128825761288161259d565b5b6000612890868287016127ea565b93505060206128a1868287016127ea565b92505060406128b286828701612735565b9150509250925092565b600082825260208201905092915050565b60006128d882612662565b6128e281856128bc565b93506128f281856020860161267e565b6128fb816126a8565b840191505092915050565b6000608083016000830151848203600086015261292382826128cd565b9150506020830151848203602086015261293d82826128cd565b9150506040830151848203604086015261295782826128cd565b9150506060830151848203606086015261297182826128cd565b9150508091505092915050565b600060208201905081810360008301526129988184612906565b905092915050565b6000602082840312156129b6576129b561259d565b5b60006129c4848285016127ea565b91505092915050565b6129d68161262c565b81146129e157600080fd5b50565b6000813590506129f3816129cd565b92915050565b60008060408385031215612a1057612a0f61259d565b5b6000612a1e858286016127ea565b9250506020612a2f858286016129e4565b9150509250929050565b600080fd5b600080fd5b7f4e487b7100000000000000000000000000000000000000000000000000000000600052604160045260246000fd5b612a7b826126a8565b810181811067ffffffffffffffff82111715612a9a57612a99612a43565b5b80604052505050565b6000612aad612593565b9050612ab98282612a72565b919050565b600067ffffffffffffffff821115612ad957612ad8612a43565b5b612ae2826126a8565b9050602081019050919050565b82818337600083830152505050565b6000612b11612b0c84612abe565b612aa3565b905082815260208101848484011115612b2d57612b2c612a3e565b5b612b38848285612aef565b509392505050565b600082601f830112612b5557612b54612a39565b5b8135612b65848260208601612afe565b91505092915050565b600080600080600060a08688031215612b8a57612b8961259d565b5b6000612b98888289016127ea565b955050602086013567ffffffffffffffff811115612bb957612bb86125a2565b5b612bc588828901612b40565b945050604086013567ffffffffffffffff811115612be657612be56125a2565b5b612bf288828901612b40565b935050606086013567ffffffffffffffff811115612c1357612c126125a2565b5b612c1f88828901612b40565b925050608086013567ffffffffffffffff811115612c4057612c3f6125a2565b5b612c4c88828901612b40565b9150509295509295909350565b600067ffffffffffffffff821115612c7457612c73612a43565b5b612c7d826126a8565b9050602081019050919050565b6000612c9d612c9884612c59565b612aa3565b905082815260208101848484011115612cb957612cb8612a3e565b5b612cc4848285612aef565b509392505050565b600082601f830112612ce157612ce0612a39565b5b8135612cf1848260208601612c8a565b91505092915050565b60008060008060808587031215612d1457612d1361259d565b5b6000612d22878288016127ea565b9450506020612d33878288016127ea565b9350506040612d4487828801612735565b925050606085013567ffffffffffffffff811115612d6557612d646125a2565b5b612d7187828801612ccc565b91505092959194509250565b60008060408385031215612d9457612d9361259d565b5b6000612da2858286016127ea565b9250506020612db3858286016127ea565b9150509250929050565b7f4e487b7100000000000000000000000000000000000000000000000000000000600052602260045260246000fd5b60006002820490506001821680612e0457607f821691505b602082108103612e1757612e16612dbd565b5b50919050565b7f4552433732313a206f776e657220717565727920666f72206e6f6e657869737460008201527f656e7420746f6b656e0000000000000000000000000000000000000000000000602082015250565b6000612e7960298361266d565b9150612e8482612e1d565b604082019050919050565b60006020820190508181036000830152612ea881612e6c565b9050919050565b7f546f6b656e20616c7265616479207265766f6b65640000000000000000000000600082015250565b6000612ee560158361266d565b9150612ef082612eaf565b602082019050919050565b60006020820190508181036000830152612f1481612ed8565b9050919050565b6000606082019050612f3060008301866127a9565b612f3d602083018561283f565b612f4a60408301846127a9565b949350505050565b6000604082019050612f6760008301856127a9565b612f74602083018461283f565b9392505050565b7f4e487b7100000000000000000000000000000000000000000000000000000000600052603260045260246000fd5b7f517565727920666f72206e6f6e6578697374656e7420746f6b656e0000000000600082015250565b6000612fe0601b8361266d565b9150612feb82612faa565b602082019050919050565b6000602082019050818103600083015261300f81612fd3565b9050919050565b7f4e487b7100000000000000000000000000000000000000000000000000000000600052601160045260246000fd5b600061305082612714565b91507fffffffffffffffffffffffffffffffffffffffffffffffffffffffffffffffff820361308257613081613016565b5b600182019050919050565b60008190508160005260206000209050919050565b60006020601f8301049050919050565b600082821b905092915050565b6000600883026130ef7fffffffffffffffffffffffffffffffffffffffffffffffffffffffffffffffff826130b2565b6130f986836130b2565b95508019841693508086168417925050509392505050565b6000819050919050565b600061313661313161312c84612714565b613111565b612714565b9050919050565b6000819050919050565b6131508361311b565b61316461315c8261313d565b8484546130bf565b825550505050565b600090565b61317961316c565b613184818484613147565b505050565b5b818110156131a85761319d600082613171565b60018101905061318a565b5050565b601f8211156131ed576131be8161308d565b6131c7846130a2565b810160208510156131d6578190505b6131ea6131e2856130a2565b830182613189565b50505b505050565b600082821c905092915050565b6000613210600019846008026131f2565b1980831691505092915050565b600061322983836131ff565b9150826002028217905092915050565b61324282612662565b67ffffffffffffffff81111561325b5761325a612a43565b5b6132658254612dec565b6132708282856131ac565b600060209050601f8311600181146132a35760008415613291578287015190505b61329b858261321d565b865550613303565b601f1984166132b18661308d565b60005b828110156132d9578489015182556001820191506020850194506020810190506132b4565b868310156132f657848901516132f2601f8916826131ff565b8355505b6001600288020188555050505b505050505050565b600081905092915050565b600061332182612662565b61332b818561330b565b935061333b81856020860161267e565b80840191505092915050565b60006133538285613316565b915061335f8284613316565b91508190509392505050565b7f4e6577206f776e657220697320746865207a65726f2061646472657373000000600082015250565b60006133a1601d8361266d565b91506133ac8261336b565b602082019050919050565b600060208201905081810360008301526133d081613394565b9050919050565b600081519050919050565b600082825260208201905092915050565b60006133fe826133d7565b61340881856133e2565b935061341881856020860161267e565b613421816126a8565b840191505092915050565b600060808201905061344160008301876127a9565b61344e60208301866127a9565b61345b604083018561283f565b818103606083015261346d81846133f3565b905095945050505050565b600081519050613487816125d3565b92915050565b6000602082840312156134a3576134a261259d565b5b60006134b184828501613478565b91505092915050565b7f4e487b7100000000000000000000000000000000000000000000000000000000600052601260045260246000fd5b60006134f482612714565b91506134ff83612714565b925082820390508181111561351757613516613016565b5b92915050565b7f4e487b7100000000000000000000000000000000000000000000000000000000600052603160045260246000fdfea26469706673582212200c5520990c338b948584222fbb40c12198c94bf620779b3d1677153d2970ab1a64736f6c634300081b0033",
  "linkReferences": {},
  "deployedLinkReferences": {}
}